{
  "contracts/BucketFactory.sol": {
    "BucketFactory": {
      "abi": [
        {
          "inputs": [],
          "stateMutability": "nonpayable",
          "type": "constructor"
        },
        {
          "anonymous": false,
          "inputs": [
            {
              "indexed": true,
              "internalType": "uint256",
              "name": "_newTestValue",
              "type": "uint256"
            }
          ],
          "name": "BucketCreated",
          "type": "event"
        },
        {
          "inputs": [],
          "name": "createBucket",
          "outputs": [],
          "stateMutability": "nonpayable",
          "type": "function"
        },
        {
          "inputs": [],
          "name": "testValue",
          "outputs": [
            {
              "internalType": "uint256",
              "name": "",
              "type": "uint256"
            }
          ],
          "stateMutability": "view",
          "type": "function"
        }
      ],
      "evm": {
        "bytecode": {
          "linkReferences": {},
          "object": "608060405234801561001057600080fd5b50602a60008190555060f6806100276000396000f3fe6080604052348015600f57600080fd5b506004361060325760003560e01c80634aa82ff51460375780638af5de7214603f575b600080fd5b603d6059565b005b6045608a565b60405160509190609d565b60405180910390f35b6000547fa9e62e6b8d5c8df7c65c027e2f07d1a7a34a5b2f4a5d595cea8faa81a809cc1760405160405180910390a2565b60005481565b60978160b6565b82525050565b600060208201905060b060008301846090565b92915050565b600081905091905056fea2646970667358221220d235ef4cb4b5d45d3dd924586bd4cf7abbb9fafbb872f84643c00acd01fa692f64736f6c63430008040033",
          "opcodes": "PUSH1 0x80 PUSH1 0x40 MSTORE CALLVALUE DUP1 ISZERO PUSH2 0x10 JUMPI PUSH1 0x0 DUP1 REVERT JUMPDEST POP PUSH1 0x2A PUSH1 0x0 DUP2 SWAP1 SSTORE POP PUSH1 0xF6 DUP1 PUSH2 0x27 PUSH1 0x0 CODECOPY PUSH1 0x0 RETURN INVALID PUSH1 0x80 PUSH1 0x40 MSTORE CALLVALUE DUP1 ISZERO PUSH1 0xF JUMPI PUSH1 0x0 DUP1 REVERT JUMPDEST POP PUSH1 0x4 CALLDATASIZE LT PUSH1 0x32 JUMPI PUSH1 0x0 CALLDATALOAD PUSH1 0xE0 SHR DUP1 PUSH4 0x4AA82FF5 EQ PUSH1 0x37 JUMPI DUP1 PUSH4 0x8AF5DE72 EQ PUSH1 0x3F JUMPI JUMPDEST PUSH1 0x0 DUP1 REVERT JUMPDEST PUSH1 0x3D PUSH1 0x59 JUMP JUMPDEST STOP JUMPDEST PUSH1 0x45 PUSH1 0x8A JUMP JUMPDEST PUSH1 0x40 MLOAD PUSH1 0x50 SWAP2 SWAP1 PUSH1 0x9D JUMP JUMPDEST PUSH1 0x40 MLOAD DUP1 SWAP2 SUB SWAP1 RETURN JUMPDEST PUSH1 0x0 SLOAD PUSH32 0xA9E62E6B8D5C8DF7C65C027E2F07D1A7A34A5B2F4A5D595CEA8FAA81A809CC17 PUSH1 0x40 MLOAD PUSH1 0x40 MLOAD DUP1 SWAP2 SUB SWAP1 LOG2 JUMP JUMPDEST PUSH1 0x0 SLOAD DUP2 JUMP JUMPDEST PUSH1 0x97 DUP2 PUSH1 0xB6 JUMP JUMPDEST DUP3 MSTORE POP POP JUMP JUMPDEST PUSH1 0x0 PUSH1 0x20 DUP3 ADD SWAP1 POP PUSH1 0xB0 PUSH1 0x0 DUP4 ADD DUP5 PUSH1 0x90 JUMP JUMPDEST SWAP3 SWAP2 POP POP JUMP JUMPDEST PUSH1 0x0 DUP2 SWAP1 POP SWAP2 SWAP1 POP JUMP INVALID LOG2 PUSH5 0x6970667358 0x22 SLT KECCAK256 0xD2 CALLDATALOAD 0xEF 0x4C 0xB4 0xB5 0xD4 0x5D RETURNDATASIZE 0xD9 0x24 PC PUSH12 0xD4CF7ABBB9FAFBB872F84643 0xC0 EXP 0xCD ADD STATICCALL PUSH10 0x2F64736F6C6343000804 STOP CALLER "
        },
        "methodIdentifiers": {
          "createBucket()": "4aa82ff5",
          "testValue()": "8af5de72"
        }
      }
    }
  }
}