{
  "_format": "hh-sol-artifact-1",
  "contractName": "L2Bucket",
  "sourceName": "contracts/L2Bucket.sol",
  "abi": [
    {
      "inputs": [],
      "stateMutability": "nonpayable",
      "type": "constructor"
    },
    {
      "anonymous": false,
      "inputs": [
        {
          "indexed": false,
          "internalType": "uint256",
          "name": "bucketID",
          "type": "uint256"
        },
        {
          "indexed": true,
          "internalType": "address",
          "name": "token",
          "type": "address"
        },
        {
          "indexed": false,
          "internalType": "bytes32",
          "name": "rootHash",
          "type": "bytes32"
        }
      ],
      "name": "MerkleRootSet",
      "type": "event"
    },
    {
      "anonymous": false,
      "inputs": [
        {
          "indexed": false,
          "internalType": "uint256",
          "name": "bucketID",
          "type": "uint256"
        },
        {
          "indexed": true,
          "internalType": "address",
          "name": "token",
          "type": "address"
        },
        {
          "indexed": true,
          "internalType": "address",
          "name": "recipient",
          "type": "address"
        },
        {
          "indexed": false,
          "internalType": "uint256",
          "name": "amount",
          "type": "uint256"
        }
      ],
      "name": "Redeemed",
      "type": "event"
    },
    {
      "inputs": [],
      "name": "ADMIN_ROLE",
      "outputs": [
        {
          "internalType": "bytes32",
          "name": "",
          "type": "bytes32"
        }
      ],
      "stateMutability": "view",
      "type": "function"
    },
    {
      "inputs": [],
      "name": "RELAY_ROLE",
      "outputs": [
        {
          "internalType": "bytes32",
          "name": "",
          "type": "bytes32"
        }
      ],
      "stateMutability": "view",
      "type": "function"
    },
    {
      "inputs": [
        {
          "internalType": "uint256",
          "name": "bucketID",
          "type": "uint256"
        },
        {
          "internalType": "address",
          "name": "tokenAddress",
          "type": "address"
        },
        {
          "internalType": "bytes32",
          "name": "rootHash",
          "type": "bytes32"
        }
      ],
      "name": "addDepositMerkleRoot",
      "outputs": [],
      "stateMutability": "nonpayable",
      "type": "function"
    },
    {
      "inputs": [
        {
          "internalType": "bytes32",
          "name": "role",
          "type": "bytes32"
        },
        {
          "internalType": "address",
          "name": "actor",
          "type": "address"
        }
      ],
      "name": "addRole",
      "outputs": [],
      "stateMutability": "nonpayable",
      "type": "function"
    },
    {
      "inputs": [
        {
          "internalType": "bytes32",
          "name": "role",
          "type": "bytes32"
        },
        {
          "internalType": "address",
          "name": "actor",
          "type": "address"
        }
      ],
      "name": "hasRole",
      "outputs": [
        {
          "internalType": "bool",
          "name": "",
          "type": "bool"
        }
      ],
      "stateMutability": "view",
      "type": "function"
    },
    {
      "inputs": [
        {
          "internalType": "uint256",
          "name": "bucketID",
          "type": "uint256"
        },
        {
          "internalType": "uint256",
          "name": "index",
          "type": "uint256"
        },
        {
          "internalType": "address",
          "name": "tokenAddress",
          "type": "address"
        },
        {
          "internalType": "address",
          "name": "recipient",
          "type": "address"
        },
        {
          "internalType": "uint256",
          "name": "amount",
          "type": "uint256"
        },
        {
          "internalType": "bytes32[]",
          "name": "proof",
          "type": "bytes32[]"
        }
      ],
      "name": "redeem",
      "outputs": [],
      "stateMutability": "nonpayable",
      "type": "function"
    },
    {
      "inputs": [
        {
          "internalType": "bytes32",
          "name": "role",
          "type": "bytes32"
        },
        {
          "internalType": "address",
          "name": "actor",
          "type": "address"
        }
      ],
      "name": "revokeRole",
      "outputs": [],
      "stateMutability": "nonpayable",
      "type": "function"
    }
  ],
  "bytecode": "0x608060405234801561001057600080fd5b5061001961001e565b6100e0565b6000610028610057565b90506100547fa49807205ce4d355092ef5a8a18f56e8913cf4a201fbe287825b095693c217758261005b565b50565b3390565b610085828261007261008960201b6105a91760201c565b6100ad60201b6105cd179092919060201c565b5050565b7f636f6d2e6275636b65746c792e416363657373436f6e74726f6c00000000000090565b60009182526001928301602090815260408084206001600160a01b0390931684529190529020805460ff19169091179055565b610a56806100ef6000396000f3fe608060405234801561001057600080fd5b506004361061007d5760003560e01c806391d148541161005b57806391d14854146100bd578063bd58992d146100dd578063d547741f146100f0578063e959b38a146101035761007d565b80630442182314610082578063671c36dd146100a057806375b238fc146100b5575b600080fd5b61008a610116565b604051610097919061084f565b60405180910390f35b6100b36100ae36600461071e565b61013a565b005b61008a61034a565b6100d06100cb3660046106a7565b61035c565b6040516100979190610844565b6100b36100eb3660046106ea565b6103f7565b6100b36100fe3660046106a7565b61051b565b6100b36101113660046106a7565b610569565b7f077a1d526a4ce8a773632ab13b4fbbf1fcc954c3dab26cd27ea0e2a6750da5d781565b610142610600565b6040516304fd721f60e11b815273__$ac279042fe2a8d5fb723e4fb9998540ae7$__916309fae43e9161018491908a9089908b908a908a908a9060040161095e565b60006040518083038186803b15801561019c57600080fd5b505af41580156101b0573d6000803e3d6000fd5b50506040516370a0823160e01b81528492506001600160a01b03871691506370a08231906101e2903090600401610817565b60206040518083038186803b1580156101fa57600080fd5b505afa15801561020e573d6000803e3d6000fd5b505050506040513d601f19601f8201168201806040525081019061023291906106d2565b10156102595760405162461bcd60e51b815260040161025090610858565b60405180910390fd5b60405163a9059cbb60e01b81526001600160a01b0385169063a9059cbb90610287908690869060040161082b565b602060405180830381600087803b1580156102a157600080fd5b505af11580156102b5573d6000803e3d6000fd5b505050506040513d601f19601f820116820180604052508101906102d99190610687565b6102f55760405162461bcd60e51b8152600401610250906108c9565b826001600160a01b0316846001600160a01b03167f18737e07ba2aac9c230bdd7119bde1c2d51cef17a2910224f55819e4b0651ea1888560405161033a9291906109dc565b60405180910390a3505050505050565b600080516020610a0183398151915281565b60006103666105a9565b6040516334c5e0e760e11b815273__$dafd1c72d965abbb2b80d9a8c80dd38550$__9163698bc1ce916103a091908790879060040161091b565b60206040518083038186803b1580156103b857600080fd5b505af41580156103cc573d6000803e3d6000fd5b505050506040513d601f19601f820116820180604052508101906103f09190610687565b9392505050565b610411600080516020610a018339815191526100cb610624565b8061044357506104437f077a1d526a4ce8a773632ab13b4fbbf1fcc954c3dab26cd27ea0e2a6750da5d76100cb610624565b61045f5760405162461bcd60e51b81526004016102509061089d565b610467610600565b604051632125bcc160e11b815273__$ac279042fe2a8d5fb723e4fb9998540ae7$__9163424b7982916104a3919087908790879060040161093a565b60006040518083038186803b1580156104bb57600080fd5b505af41580156104cf573d6000803e3d6000fd5b50505050816001600160a01b03167f25f67e2127b895637dfb4b4966e9a41c7e4e9f2033eb9188e609186ff895a771848360405161050e9291906109dc565b60405180910390a2505050565b610535600080516020610a018339815191526100cb610624565b6105515760405162461bcd60e51b8152600401610250906108f8565b610565828261055e6105a9565b9190610628565b5050565b610583600080516020610a018339815191526100cb610624565b61059f5760405162461bcd60e51b8152600401610250906108f8565b6105658282610657565b7f636f6d2e6275636b65746c792e416363657373436f6e74726f6c00000000000090565b60009182526001928301602090815260408084206001600160a01b0390931684529190529020805460ff19169091179055565b7f636f6d2e6275636b65746c792e4d65726b6c6553746f7261676500000000000090565b3390565b60009182526001909201602090815260408083206001600160a01b03909416835292905220805460ff19169055565b61056582826106646105a9565b91906105cd565b80356001600160a01b038116811461068257600080fd5b919050565b600060208284031215610698578081fd5b815180151581146103f0578182fd5b600080604083850312156106b9578081fd5b823591506106c96020840161066b565b90509250929050565b6000602082840312156106e3578081fd5b5051919050565b6000806000606084860312156106fe578081fd5b8335925061070e6020850161066b565b9150604084013590509250925092565b60008060008060008060c08789031215610736578182fd5b86359550602080880135955061074e6040890161066b565b945061075c6060890161066b565b93506080880135925060a088013567ffffffffffffffff8082111561077f578384fd5b818a0191508a601f830112610792578384fd5b8135818111156107a4576107a46109ea565b838102604051858282010181811085821117156107c3576107c36109ea565b604052828152858101935084860182860187018f10156107e1578788fd5b8795505b838610156108035780358552600195909501949386019386016107e5565b508096505050505050509295509295509295565b6001600160a01b0391909116815260200190565b6001600160a01b03929092168252602082015260400190565b901515815260200190565b90815260200190565b60208082526025908201527f496e73756666696369656e742062616c616e636520746f2072656465656d2066604082015264756e64732160d81b606082015260800190565b6020808252601290820152714e6f742061646d696e206f722072656c617960701b604082015260600190565b602080825260159082015274151bdad95b881d1c985b9cd9995c8819985a5b1959605a1b604082015260600190565b6020808252600990820152682737ba1030b236b4b760b91b604082015260600190565b92835260208301919091526001600160a01b0316604082015260600190565b93845260208401929092526001600160a01b03166040830152606082015260800190565b87815260208082018890526001600160a01b038781166040840152606083018790528516608083015260a0820184905260e060c08301819052835190830181905260009184810191610100850190845b818110156109ca578451835293830193918301916001016109ae565b50909c9b505050505050505050505050565b918252602082015260400190565b634e487b7160e01b600052604160045260246000fdfea49807205ce4d355092ef5a8a18f56e8913cf4a201fbe287825b095693c21775a26469706673582212202ca6e1b49e51677f78db058ae61a869c6c97b4b642bd50d4fec80c879eb0399664736f6c63430008000033",
  "linkReferences": {
    "contracts/LibAccess.sol": {
      "LibAccess": [
        {
          "length": 20,
          "start": 1124
        }
      ]
    },
    "contracts/LibMerkle.sol": {
      "LibMerkle": [
        {
          "length": 20,
          "start": 576
        },
        {
          "length": 20,
          "start": 1381
        }
      ]
    }
  },
  "deployedLinkReferences": {
    "contracts/LibAccess.sol": {
      "LibAccess": [
        {
          "length": 20,
          "start": 885
        }
      ]
    },
    "contracts/LibMerkle.sol": {
      "LibMerkle": [
        {
          "length": 20,
          "start": 337
        },
        {
          "length": 20,
          "start": 1142
        }
      ]
    }
  }
}