{
  "_format": "hh-sol-artifact-1",
  "contractName": "BucketERC20",
  "sourceName": "contracts/BucketERC20.sol",
  "abi": [
    {
      "inputs": [
        {
          "internalType": "address",
          "name": "_depositManagerContract",
          "type": "address"
        },
        {
          "internalType": "address",
          "name": "_erc20Address",
          "type": "address"
        },
        {
          "internalType": "address",
          "name": "_bucketL2Address",
          "type": "address"
        },
        {
          "internalType": "string",
          "name": "_tokenName",
          "type": "string"
        },
        {
          "internalType": "uint256",
          "name": "_thresholdAmount",
          "type": "uint256"
        },
        {
          "internalType": "uint256",
          "name": "_minimumReserve",
          "type": "uint256"
        },
        {
          "internalType": "uint256",
          "name": "_expirationTime",
          "type": "uint256"
        }
      ],
      "stateMutability": "nonpayable",
      "type": "constructor"
    },
    {
      "anonymous": false,
      "inputs": [
        {
          "indexed": true,
          "internalType": "uint256",
          "name": "id",
          "type": "uint256"
        },
        {
          "indexed": false,
          "internalType": "string",
          "name": "token",
          "type": "string"
        },
        {
          "indexed": true,
          "internalType": "uint256",
          "name": "triggerAmount",
          "type": "uint256"
        },
        {
          "indexed": true,
          "internalType": "uint256",
          "name": "expirationDate",
          "type": "uint256"
        }
      ],
      "name": "BucketCreated",
      "type": "event"
    },
    {
      "anonymous": false,
      "inputs": [
        {
          "indexed": true,
          "internalType": "uint256",
          "name": "bucketId",
          "type": "uint256"
        },
        {
          "indexed": true,
          "internalType": "uint256",
          "name": "amount",
          "type": "uint256"
        },
        {
          "indexed": true,
          "internalType": "address",
          "name": "depositor",
          "type": "address"
        }
      ],
      "name": "Deposit",
      "type": "event"
    },
    {
      "anonymous": false,
      "inputs": [
        {
          "indexed": true,
          "internalType": "uint256",
          "name": "bucketId",
          "type": "uint256"
        }
      ],
      "name": "InsufficientReserve",
      "type": "event"
    },
    {
      "anonymous": false,
      "inputs": [
        {
          "indexed": true,
          "internalType": "uint256",
          "name": "bucketId",
          "type": "uint256"
        },
        {
          "indexed": true,
          "internalType": "uint256",
          "name": "totalAmount",
          "type": "uint256"
        }
      ],
      "name": "TransferToPoly",
      "type": "event"
    },
    {
      "anonymous": false,
      "inputs": [
        {
          "indexed": true,
          "internalType": "uint256",
          "name": "bucketId",
          "type": "uint256"
        }
      ],
      "name": "Withdraw",
      "type": "event"
    },
    {
      "inputs": [],
      "name": "activeBucketId",
      "outputs": [
        {
          "internalType": "uint256",
          "name": "",
          "type": "uint256"
        }
      ],
      "stateMutability": "view",
      "type": "function"
    },
    {
      "inputs": [],
      "name": "bucketIdCount",
      "outputs": [
        {
          "internalType": "uint256",
          "name": "",
          "type": "uint256"
        }
      ],
      "stateMutability": "view",
      "type": "function"
    },
    {
      "inputs": [],
      "name": "bucketL2Address",
      "outputs": [
        {
          "internalType": "address",
          "name": "",
          "type": "address"
        }
      ],
      "stateMutability": "view",
      "type": "function"
    },
    {
      "inputs": [],
      "name": "createBucket",
      "outputs": [],
      "stateMutability": "nonpayable",
      "type": "function"
    },
    {
      "inputs": [
        {
          "internalType": "uint256",
          "name": "depositAmount",
          "type": "uint256"
        }
      ],
      "name": "deposit",
      "outputs": [],
      "stateMutability": "nonpayable",
      "type": "function"
    },
    {
      "inputs": [],
      "name": "depositManagerContract",
      "outputs": [
        {
          "internalType": "address",
          "name": "",
          "type": "address"
        }
      ],
      "stateMutability": "view",
      "type": "function"
    },
    {
      "inputs": [
        {
          "internalType": "uint256",
          "name": "",
          "type": "uint256"
        },
        {
          "internalType": "address",
          "name": "",
          "type": "address"
        }
      ],
      "name": "deposits",
      "outputs": [
        {
          "internalType": "uint256",
          "name": "",
          "type": "uint256"
        }
      ],
      "stateMutability": "view",
      "type": "function"
    },
    {
      "inputs": [],
      "name": "erc20Address",
      "outputs": [
        {
          "internalType": "address",
          "name": "",
          "type": "address"
        }
      ],
      "stateMutability": "view",
      "type": "function"
    },
    {
      "inputs": [],
      "name": "expirationDate",
      "outputs": [
        {
          "internalType": "uint256",
          "name": "",
          "type": "uint256"
        }
      ],
      "stateMutability": "view",
      "type": "function"
    },
    {
      "inputs": [],
      "name": "expirationTime",
      "outputs": [
        {
          "internalType": "uint256",
          "name": "",
          "type": "uint256"
        }
      ],
      "stateMutability": "view",
      "type": "function"
    },
    {
      "inputs": [
        {
          "internalType": "uint256",
          "name": "_amount",
          "type": "uint256"
        }
      ],
      "name": "makeTransfer",
      "outputs": [],
      "stateMutability": "nonpayable",
      "type": "function"
    },
    {
      "inputs": [],
      "name": "minimumReserve",
      "outputs": [
        {
          "internalType": "uint256",
          "name": "",
          "type": "uint256"
        }
      ],
      "stateMutability": "view",
      "type": "function"
    },
    {
      "inputs": [],
      "name": "refund",
      "outputs": [],
      "stateMutability": "nonpayable",
      "type": "function"
    },
    {
      "inputs": [],
      "name": "thresholdAmount",
      "outputs": [
        {
          "internalType": "uint256",
          "name": "",
          "type": "uint256"
        }
      ],
      "stateMutability": "view",
      "type": "function"
    },
    {
      "inputs": [],
      "name": "tokenName",
      "outputs": [
        {
          "internalType": "string",
          "name": "",
          "type": "string"
        }
      ],
      "stateMutability": "view",
      "type": "function"
    }
  ],
  "bytecode": "0x60806040523480156200001157600080fd5b5060405162000f3f38038062000f3f8339810160408190526200003491620001e5565b600780546001600160a01b03808a166001600160a01b03199283161790925560068054898416908316179055600880549288169290911691909117905560008055600282905583516200008f90600990602087019062000122565b5060038390556004819055620000a4620000b1565b505050505050506200044f565b600054620000c1906001620003d7565b60008190556001819055600454620000da9042620003d7565b600581905560035460405183907f6ec6fd0fe8702af4caa522af0509f1aa821d3c95b64cabc7e3227b83004304f79062000117906009906200030c565b60405180910390a450565b8280546200013090620003fc565b90600052602060002090601f0160209004810192826200015457600085556200019f565b82601f106200016f57805160ff19168380011785556200019f565b828001600101855582156200019f579182015b828111156200019f57825182559160200191906001019062000182565b50620001ad929150620001b1565b5090565b5b80821115620001ad5760008155600101620001b2565b80516001600160a01b0381168114620001e057600080fd5b919050565b600080600080600080600060e0888a03121562000200578283fd5b6200020b88620001c8565b965060206200021c818a01620001c8565b96506200022c60408a01620001c8565b60608a01519096506001600160401b038082111562000249578586fd5b818b0191508b601f8301126200025d578586fd5b81518181111562000272576200027262000439565b604051601f8201601f191681018501838111828210171562000298576200029862000439565b60405281815283820185018e1015620002af578788fd5b8792505b81831015620002d25783830185015181840186015291840191620002b3565b81831115620002e357878583830101525b80985050505050506080880151925060a0880151915060c0880151905092959891949750929550565b60006020808352818454836002820490506001808316806200032f57607f831692505b8583108114156200034e57634e487b7160e01b87526022600452602487fd5b6200035c83878a01620003ce565b8180156200037357600181146200038557620003b3565b60ff19861682528782019650620003b3565b620003908b620003c2565b895b86811015620003ad5781548482015290850190890162000392565b83019750505b50949998505050505050505050565b60009081526020902090565b90815260200190565b60008219821115620003f757634e487b7160e01b81526011600452602481fd5b500190565b6002810460018216806200041157607f821691505b602082108114156200043357634e487b7160e01b600052602260045260246000fd5b50919050565b634e487b7160e01b600052604160045260246000fd5b610ae0806200045f6000396000f3fe608060405234801561001057600080fd5b50600436106100f55760003560e01c806353fafd1511610097578063b245b34b11610066578063b245b34b1461019a578063b6b55f25146101a2578063b6c5039f146101b5578063da284dcc146101bd576100f5565b806353fafd1514610162578063590e1ae3146101755780636c02a9311461017d5780638f62048714610192576100f5565b806328f4dbb6116100d357806328f4dbb614610128578063451250fb1461013d5780634aa82ff51461014557806353a58de11461014f576100f5565b806321d6ef63146100fa578063276184ae1461011857806328522ef814610120575b600080fd5b6101026101c5565b60405161010f91906107e0565b60405180910390f35b6101026101d4565b6101026101e3565b6101306101f2565b60405161010f9190610a36565b6101306101f8565b61014d6101fe565b005b61013061015d3660046107a6565b610269565b61014d610170366004610776565b610286565b61014d610476565b610185610478565b60405161010f919061084b565b610130610506565b61013061050c565b61014d6101b0366004610776565b610512565b610130610743565b610130610749565b6008546001600160a01b031681565b6006546001600160a01b031681565b6007546001600160a01b031681565b60035481565b60005481565b60005461020c906001610a4b565b600081905560018190556004546102239042610a4b565b600581905560035460405183907f6ec6fd0fe8702af4caa522af0509f1aa821d3c95b64cabc7e3227b83004304f79061025e9060099061089e565b60405180910390a450565b600a60209081526000928352604080842090915290825290205481565b6006546040516370a0823160e01b81526001600160a01b0390911690829082906370a08231906102ba9030906004016107e0565b60206040518083038186803b1580156102d257600080fd5b505afa1580156102e6573d6000803e3d6000fd5b505050506040513d601f19601f8201168201806040525081019061030a919061078e565b10156103315760405162461bcd60e51b815260040161032890610978565b60405180910390fd5b60075460405163095ea7b360e01b81526001600160a01b038381169263095ea7b39261036592909116908690600401610832565b602060405180830381600087803b15801561037f57600080fd5b505af1158015610393573d6000803e3d6000fd5b505050506040513d601f19601f820116820180604052508101906103b7919061074f565b6103d35760405162461bcd60e51b8152600401610328906109a6565b600754600654604051634bff5c9360e11b81526001600160a01b03928316926397feb92692610409929116908690600401610832565b600060405180830381600087803b15801561042357600080fd5b505af1158015610437573d6000803e3d6000fd5b505050506104436101fe565b6001546040518391907f6a4d7d7f7e8263815c844523923a9bb145bb169061f318049f790034ee036eb090600090a35050565b565b6009805461048590610a6f565b80601f01602080910402602001604051908101604052809291908181526020018280546104b190610a6f565b80156104fe5780601f106104d3576101008083540402835291602001916104fe565b820191906000526020600020905b8154815290600101906020018083116104e157829003601f168201915b505050505081565b60055481565b60015481565b6006546040516370a0823160e01b81526001600160a01b0390911690829082906370a08231906105469033906004016107e0565b60206040518083038186803b15801561055e57600080fd5b505afa158015610572573d6000803e3d6000fd5b505050506040513d601f19601f82011682018060405250810190610596919061078e565b10156105b45760405162461bcd60e51b815260040161032890610978565b604051636eb1769f60e11b815282906001600160a01b0383169063dd62ed3e906105e490339030906004016107f4565b60206040518083038186803b1580156105fc57600080fd5b505afa158015610610573d6000803e3d6000fd5b505050506040513d601f19601f82011682018060405250810190610634919061078e565b10156106525760405162461bcd60e51b815260040161032890610948565b6040516323b872dd60e01b81526001600160a01b038216906323b872dd906106829033903090879060040161080e565b602060405180830381600087803b15801561069c57600080fd5b505af11580156106b0573d6000803e3d6000fd5b505050506040513d601f19601f820116820180604052508101906106d4919061074f565b6106f05760405162461bcd60e51b8152600401610328906109ee565b600180546000908152600a60209081526040808320338085529252808320869055925492519092859290917fd68606c673aecac7ce24ec44fd7d77b401356dfd76fe9b36cb58e579c4220aed9190a45050565b60025481565b60045481565b600060208284031215610760578081fd5b8151801515811461076f578182fd5b9392505050565b600060208284031215610787578081fd5b5035919050565b60006020828403121561079f578081fd5b5051919050565b600080604083850312156107b8578081fd5b8235915060208301356001600160a01b03811681146107d5578182fd5b809150509250929050565b6001600160a01b0391909116815260200190565b6001600160a01b0392831681529116602082015260400190565b6001600160a01b039384168152919092166020820152604081019190915260600190565b6001600160a01b03929092168252602082015260400190565b6000602080835283518082850152825b818110156108775785810183015185820160400152820161085b565b818111156108885783604083870101525b50601f01601f1916929092016040019392505050565b60006020808352818454836002820490506001808316806108c057607f831692505b8583108114156108de57634e487b7160e01b87526022600452602487fd5b6108ea83878a01610a36565b8180156108fe576001811461090f57610939565b60ff19861682528782019650610939565b6109188b610a3f565b895b868110156109335781548482015290850190890161091a565b83019750505b50949998505050505050505050565b602080825260169082015275496e73756666696369656e7420616c6c6f77616e636560501b604082015260600190565b602080825260149082015273496e73756666696369656e742062616c616e636560601b604082015260600190565b60208082526028908201527f436f756c64206e6f7420617070726f7665206465706f7369744d616e6167657260408201526710dbdb9d1c9858dd60c21b606082015260800190565b60208082526028908201527f436f756c64206e6f74207472616e7366657220746f6b656e732066726f6d206460408201526732b837b9b4ba37b960c11b606082015260800190565b90815260200190565b60009081526020902090565b60008219821115610a6a57634e487b7160e01b81526011600452602481fd5b500190565b600281046001821680610a8357607f821691505b60208210811415610aa457634e487b7160e01b600052602260045260246000fd5b5091905056fea26469706673582212202a8644e99d2a2d383799ad4937d39c0e126d2f2b7ecd810ae633f5ea0748843264736f6c63430008000033",
  "linkReferences": {},
  "deployedLinkReferences": {}
}