{
  "_format": "hh-sol-artifact-1",
  "contractName": "BucketERC20",
  "sourceName": "contracts/BucketERC20.sol",
  "abi": [
    {
      "inputs": [
        {
          "internalType": "address",
          "name": "_erc20Address",
          "type": "address"
        },
        {
          "internalType": "string",
          "name": "_tokenName",
          "type": "string"
        },
        {
          "internalType": "uint256",
          "name": "_triggerAmount",
          "type": "uint256"
        },
        {
          "internalType": "uint256",
          "name": "_minimumReserve",
          "type": "uint256"
        },
        {
          "internalType": "uint256",
          "name": "_expirationTime",
          "type": "uint256"
        }
      ],
      "stateMutability": "nonpayable",
      "type": "constructor"
    },
    {
      "anonymous": false,
      "inputs": [
        {
          "indexed": true,
          "internalType": "uint256",
          "name": "id",
          "type": "uint256"
        },
        {
          "indexed": false,
          "internalType": "string",
          "name": "token",
          "type": "string"
        },
        {
          "indexed": true,
          "internalType": "uint256",
          "name": "triggerAmount",
          "type": "uint256"
        },
        {
          "indexed": true,
          "internalType": "uint256",
          "name": "expirationDate",
          "type": "uint256"
        }
      ],
      "name": "BucketCreated",
      "type": "event"
    },
    {
      "anonymous": false,
      "inputs": [
        {
          "indexed": true,
          "internalType": "uint256",
          "name": "bucketId",
          "type": "uint256"
        },
        {
          "indexed": true,
          "internalType": "uint256",
          "name": "amount",
          "type": "uint256"
        },
        {
          "indexed": true,
          "internalType": "address",
          "name": "depositor",
          "type": "address"
        }
      ],
      "name": "Deposit",
      "type": "event"
    },
    {
      "anonymous": false,
      "inputs": [
        {
          "indexed": true,
          "internalType": "uint256",
          "name": "bucketId",
          "type": "uint256"
        }
      ],
      "name": "InsufficientReserve",
      "type": "event"
    },
    {
      "anonymous": false,
      "inputs": [
        {
          "indexed": true,
          "internalType": "uint256",
          "name": "bucketId",
          "type": "uint256"
        },
        {
          "indexed": true,
          "internalType": "uint256",
          "name": "totalAmount",
          "type": "uint256"
        }
      ],
      "name": "TransferToPoly",
      "type": "event"
    },
    {
      "anonymous": false,
      "inputs": [
        {
          "indexed": true,
          "internalType": "uint256",
          "name": "bucketId",
          "type": "uint256"
        }
      ],
      "name": "Withdraw",
      "type": "event"
    },
    {
      "inputs": [],
      "name": "activeBucketId",
      "outputs": [
        {
          "internalType": "uint256",
          "name": "",
          "type": "uint256"
        }
      ],
      "stateMutability": "view",
      "type": "function"
    },
    {
      "inputs": [],
      "name": "bucketIdCount",
      "outputs": [
        {
          "internalType": "uint256",
          "name": "",
          "type": "uint256"
        }
      ],
      "stateMutability": "view",
      "type": "function"
    },
    {
      "inputs": [
        {
          "internalType": "uint256",
          "name": "triggerAmount",
          "type": "uint256"
        }
      ],
      "name": "createBucket",
      "outputs": [],
      "stateMutability": "nonpayable",
      "type": "function"
    },
    {
      "inputs": [
        {
          "internalType": "uint256",
          "name": "depositAmount",
          "type": "uint256"
        }
      ],
      "name": "deposit",
      "outputs": [],
      "stateMutability": "nonpayable",
      "type": "function"
    },
    {
      "inputs": [
        {
          "internalType": "uint256",
          "name": "",
          "type": "uint256"
        },
        {
          "internalType": "address",
          "name": "",
          "type": "address"
        }
      ],
      "name": "deposits",
      "outputs": [
        {
          "internalType": "uint256",
          "name": "",
          "type": "uint256"
        }
      ],
      "stateMutability": "view",
      "type": "function"
    },
    {
      "inputs": [],
      "name": "erc20Address",
      "outputs": [
        {
          "internalType": "address",
          "name": "",
          "type": "address"
        }
      ],
      "stateMutability": "view",
      "type": "function"
    },
    {
      "inputs": [],
      "name": "expirationDate",
      "outputs": [
        {
          "internalType": "uint256",
          "name": "",
          "type": "uint256"
        }
      ],
      "stateMutability": "view",
      "type": "function"
    },
    {
      "inputs": [],
      "name": "expirationTime",
      "outputs": [
        {
          "internalType": "uint256",
          "name": "",
          "type": "uint256"
        }
      ],
      "stateMutability": "view",
      "type": "function"
    },
    {
      "inputs": [],
      "name": "makeTransfer",
      "outputs": [],
      "stateMutability": "nonpayable",
      "type": "function"
    },
    {
      "inputs": [],
      "name": "minimumReserve",
      "outputs": [
        {
          "internalType": "uint256",
          "name": "",
          "type": "uint256"
        }
      ],
      "stateMutability": "view",
      "type": "function"
    },
    {
      "inputs": [],
      "name": "refund",
      "outputs": [],
      "stateMutability": "nonpayable",
      "type": "function"
    },
    {
      "inputs": [],
      "name": "tokenName",
      "outputs": [
        {
          "internalType": "string",
          "name": "",
          "type": "string"
        }
      ],
      "stateMutability": "view",
      "type": "function"
    }
  ],
  "bytecode": "0x60806040523480156200001157600080fd5b506040516200131738038062001317833981810160405281019062000037919062000291565b6000808190555084600560006101000a81548173ffffffffffffffffffffffffffffffffffffffff021916908373ffffffffffffffffffffffffffffffffffffffff1602179055508160028190555083600690805190602001906200009e92919062000141565b5080600381905550620000b783620000c260201b60201c565b505050505062000670565b6001600054620000d3919062000461565b60008190555060008054905060005460018190555060035442620000f8919062000461565b60048190555060045482827f6ec6fd0fe8702af4caa522af0509f1aa821d3c95b64cabc7e3227b83004304f76006604051620001359190620003b8565b60405180910390a45050565b8280546200014f9062000532565b90600052602060002090601f016020900481019282620001735760008555620001bf565b82601f106200018e57805160ff1916838001178555620001bf565b82800160010185558215620001bf579182015b82811115620001be578251825591602001919060010190620001a1565b5b509050620001ce9190620001d2565b5090565b5b80821115620001ed576000816000905550600101620001d3565b5090565b600062000208620002028462000405565b620003dc565b9050828152602081018484840111156200022157600080fd5b6200022e848285620004fc565b509392505050565b60008151905062000247816200063c565b92915050565b600082601f8301126200025f57600080fd5b815162000271848260208601620001f1565b91505092915050565b6000815190506200028b8162000656565b92915050565b600080600080600060a08688031215620002aa57600080fd5b6000620002ba8882890162000236565b955050602086015167ffffffffffffffff811115620002d857600080fd5b620002e6888289016200024d565b9450506040620002f9888289016200027a565b93505060606200030c888289016200027a565b92505060806200031f888289016200027a565b9150509295509295909350565b600081546200033b8162000532565b62000347818662000450565b945060018216600081146200036557600181146200037857620003af565b60ff1983168652602086019350620003af565b62000383856200043b565b60005b83811015620003a75781548189015260018201915060208101905062000386565b808801955050505b50505092915050565b60006020820190508181036000830152620003d481846200032c565b905092915050565b6000620003e8620003fb565b9050620003f6828262000568565b919050565b6000604051905090565b600067ffffffffffffffff821115620004235762000422620005fc565b5b6200042e826200062b565b9050602081019050919050565b60008190508160005260206000209050919050565b600082825260208201905092915050565b60006200046e82620004f2565b91506200047b83620004f2565b9250827fffffffffffffffffffffffffffffffffffffffffffffffffffffffffffffffff03821115620004b357620004b26200059e565b5b828201905092915050565b6000620004cb82620004d2565b9050919050565b600073ffffffffffffffffffffffffffffffffffffffff82169050919050565b6000819050919050565b60005b838110156200051c578082015181840152602081019050620004ff565b838111156200052c576000848401525b50505050565b600060028204905060018216806200054b57607f821691505b60208210811415620005625762000561620005cd565b5b50919050565b62000573826200062b565b810181811067ffffffffffffffff82111715620005955762000594620005fc565b5b80604052505050565b7f4e487b7100000000000000000000000000000000000000000000000000000000600052601160045260246000fd5b7f4e487b7100000000000000000000000000000000000000000000000000000000600052602260045260246000fd5b7f4e487b7100000000000000000000000000000000000000000000000000000000600052604160045260246000fd5b6000601f19601f8301169050919050565b6200064781620004be565b81146200065357600080fd5b50565b6200066181620004f2565b81146200066d57600080fd5b50565b610c9780620006806000396000f3fe608060405234801561001057600080fd5b50600436106100b45760003560e01c80638f620487116100715780638f62048714610157578063b245b34b14610175578063b6b55f2514610193578063b6c5039f146101af578063da284dcc146101cd578063fafe4378146101eb576100b4565b8063276184ae146100b9578063307a45aa146100d7578063451250fb146100e157806353a58de1146100ff578063590e1ae31461012f5780636c02a93114610139575b600080fd5b6100c1610207565b6040516100ce919061089e565b60405180910390f35b6100df61022d565b005b6100e961022f565b6040516100f691906109bd565b60405180910390f35b61011960048036038101906101149190610722565b610235565b60405161012691906109bd565b60405180910390f35b61013761025a565b005b61014161025c565b60405161014e9190610919565b60405180910390f35b61015f6102ea565b60405161016c91906109bd565b60405180910390f35b61017d6102f0565b60405161018a91906109bd565b60405180910390f35b6101ad60048036038101906101a891906106d0565b6102f6565b005b6101b76105ce565b6040516101c491906109bd565b60405180910390f35b6101d56105d4565b6040516101e291906109bd565b60405180910390f35b610205600480360381019061020091906106d0565b6105da565b005b600560009054906101000a900473ffffffffffffffffffffffffffffffffffffffff1681565b565b60005481565b6007602052816000526040600020602052806000526040600020600091509150505481565b565b6006805461026990610ada565b80601f016020809104026020016040519081016040528092919081815260200182805461029590610ada565b80156102e25780601f106102b7576101008083540402835291602001916102e2565b820191906000526020600020905b8154815290600101906020018083116102c557829003601f168201915b505050505081565b60045481565b60015481565b6000600560009054906101000a900473ffffffffffffffffffffffffffffffffffffffff169050818173ffffffffffffffffffffffffffffffffffffffff166370a08231336040518263ffffffff1660e01b8152600401610357919061089e565b60206040518083038186803b15801561036f57600080fd5b505afa158015610383573d6000803e3d6000fd5b505050506040513d601f19601f820116820180604052508101906103a791906106f9565b10156103e8576040517f08c379a00000000000000000000000000000000000000000000000000000000081526004016103df9061097d565b60405180910390fd5b818173ffffffffffffffffffffffffffffffffffffffff1663dd62ed3e33306040518363ffffffff1660e01b81526004016104249291906108b9565b60206040518083038186803b15801561043c57600080fd5b505afa158015610450573d6000803e3d6000fd5b505050506040513d601f19601f8201168201806040525081019061047491906106f9565b10156104b5576040517f08c379a00000000000000000000000000000000000000000000000000000000081526004016104ac9061095d565b60405180910390fd5b8073ffffffffffffffffffffffffffffffffffffffff166323b872dd3330856040518463ffffffff1660e01b81526004016104f2939291906108e2565b602060405180830381600087803b15801561050c57600080fd5b505af1158015610520573d6000803e3d6000fd5b505050506040513d601f19601f8201168201806040525081019061054491906106a7565b610583576040517f08c379a000000000000000000000000000000000000000000000000000000000815260040161057a9061099d565b60405180910390fd5b3373ffffffffffffffffffffffffffffffffffffffff16826001547fd68606c673aecac7ce24ec44fd7d77b401356dfd76fe9b36cb58e579c4220aed60405160405180910390a45050565b60025481565b60035481565b60016000546105e99190610a09565b6000819055506000805490506000546001819055506003544261060c9190610a09565b60048190555060045482827f6ec6fd0fe8702af4caa522af0509f1aa821d3c95b64cabc7e3227b83004304f76006604051610647919061093b565b60405180910390a45050565b60008135905061066281610c1c565b92915050565b60008151905061067781610c33565b92915050565b60008135905061068c81610c4a565b92915050565b6000815190506106a181610c4a565b92915050565b6000602082840312156106b957600080fd5b60006106c784828501610668565b91505092915050565b6000602082840312156106e257600080fd5b60006106f08482850161067d565b91505092915050565b60006020828403121561070b57600080fd5b600061071984828501610692565b91505092915050565b6000806040838503121561073557600080fd5b60006107438582860161067d565b925050602061075485828601610653565b9150509250929050565b61076781610a5f565b82525050565b6000610778826109ed565b61078281856109f8565b9350610792818560208601610aa7565b61079b81610b6a565b840191505092915050565b600081546107b381610ada565b6107bd81866109f8565b945060018216600081146107d857600181146107ea5761081d565b60ff198316865260208601935061081d565b6107f3856109d8565b60005b83811015610815578154818901526001820191506020810190506107f6565b808801955050505b50505092915050565b60006108336016836109f8565b915061083e82610b7b565b602082019050919050565b60006108566014836109f8565b915061086182610ba4565b602082019050919050565b60006108796028836109f8565b915061088482610bcd565b604082019050919050565b61089881610a9d565b82525050565b60006020820190506108b3600083018461075e565b92915050565b60006040820190506108ce600083018561075e565b6108db602083018461075e565b9392505050565b60006060820190506108f7600083018661075e565b610904602083018561075e565b610911604083018461088f565b949350505050565b60006020820190508181036000830152610933818461076d565b905092915050565b6000602082019050818103600083015261095581846107a6565b905092915050565b6000602082019050818103600083015261097681610826565b9050919050565b6000602082019050818103600083015261099681610849565b9050919050565b600060208201905081810360008301526109b68161086c565b9050919050565b60006020820190506109d2600083018461088f565b92915050565b60008190508160005260206000209050919050565b600081519050919050565b600082825260208201905092915050565b6000610a1482610a9d565b9150610a1f83610a9d565b9250827fffffffffffffffffffffffffffffffffffffffffffffffffffffffffffffffff03821115610a5457610a53610b0c565b5b828201905092915050565b6000610a6a82610a7d565b9050919050565b60008115159050919050565b600073ffffffffffffffffffffffffffffffffffffffff82169050919050565b6000819050919050565b60005b83811015610ac5578082015181840152602081019050610aaa565b83811115610ad4576000848401525b50505050565b60006002820490506001821680610af257607f821691505b60208210811415610b0657610b05610b3b565b5b50919050565b7f4e487b7100000000000000000000000000000000000000000000000000000000600052601160045260246000fd5b7f4e487b7100000000000000000000000000000000000000000000000000000000600052602260045260246000fd5b6000601f19601f8301169050919050565b7f496e73756666696369656e7420616c6c6f77616e636500000000000000000000600082015250565b7f496e73756666696369656e742062616c616e6365000000000000000000000000600082015250565b7f436f756c64206e6f74207472616e7366657220746f6b656e732066726f6d206460008201527f65706f7369746f72000000000000000000000000000000000000000000000000602082015250565b610c2581610a5f565b8114610c3057600080fd5b50565b610c3c81610a71565b8114610c4757600080fd5b50565b610c5381610a9d565b8114610c5e57600080fd5b5056fea2646970667358221220400eff96159d50ab7cb2620565471c9c99b4e076644c97fbe60a735f882571fd64736f6c63430008040033",
  "linkReferences": {},
  "deployedLinkReferences": {}
}