{
  "_format": "hh-sol-artifact-1",
  "contractName": "BucketERC20",
  "sourceName": "contracts/BucketERC20.sol",
  "abi": [
    {
      "inputs": [
        {
          "internalType": "address",
          "name": "_depositManagerContract",
          "type": "address"
        },
        {
          "internalType": "address",
          "name": "_erc20Address",
          "type": "address"
        },
        {
          "internalType": "string",
          "name": "_tokenName",
          "type": "string"
        },
        {
          "internalType": "uint256",
          "name": "_thresholdAmount",
          "type": "uint256"
        },
        {
          "internalType": "uint256",
          "name": "_minimumReserve",
          "type": "uint256"
        },
        {
          "internalType": "uint256",
          "name": "_expirationTime",
          "type": "uint256"
        }
      ],
      "stateMutability": "nonpayable",
      "type": "constructor"
    },
    {
      "anonymous": false,
      "inputs": [
        {
          "indexed": true,
          "internalType": "uint256",
          "name": "id",
          "type": "uint256"
        },
        {
          "indexed": false,
          "internalType": "string",
          "name": "token",
          "type": "string"
        },
        {
          "indexed": true,
          "internalType": "uint256",
          "name": "triggerAmount",
          "type": "uint256"
        },
        {
          "indexed": true,
          "internalType": "uint256",
          "name": "expirationDate",
          "type": "uint256"
        }
      ],
      "name": "BucketCreated",
      "type": "event"
    },
    {
      "anonymous": false,
      "inputs": [
        {
          "indexed": true,
          "internalType": "uint256",
          "name": "bucketId",
          "type": "uint256"
        },
        {
          "indexed": true,
          "internalType": "uint256",
          "name": "amount",
          "type": "uint256"
        },
        {
          "indexed": true,
          "internalType": "address",
          "name": "depositor",
          "type": "address"
        }
      ],
      "name": "Deposit",
      "type": "event"
    },
    {
      "anonymous": false,
      "inputs": [
        {
          "indexed": true,
          "internalType": "uint256",
          "name": "bucketId",
          "type": "uint256"
        }
      ],
      "name": "InsufficientReserve",
      "type": "event"
    },
    {
      "anonymous": false,
      "inputs": [
        {
          "indexed": true,
          "internalType": "uint256",
          "name": "bucketId",
          "type": "uint256"
        },
        {
          "indexed": true,
          "internalType": "uint256",
          "name": "totalAmount",
          "type": "uint256"
        }
      ],
      "name": "TransferToPoly",
      "type": "event"
    },
    {
      "anonymous": false,
      "inputs": [
        {
          "indexed": true,
          "internalType": "uint256",
          "name": "bucketId",
          "type": "uint256"
        }
      ],
      "name": "Withdraw",
      "type": "event"
    },
    {
      "inputs": [],
      "name": "activeBucketId",
      "outputs": [
        {
          "internalType": "uint256",
          "name": "",
          "type": "uint256"
        }
      ],
      "stateMutability": "view",
      "type": "function"
    },
    {
      "inputs": [],
      "name": "bucketIdCount",
      "outputs": [
        {
          "internalType": "uint256",
          "name": "",
          "type": "uint256"
        }
      ],
      "stateMutability": "view",
      "type": "function"
    },
    {
      "inputs": [],
      "name": "createBucket",
      "outputs": [],
      "stateMutability": "nonpayable",
      "type": "function"
    },
    {
      "inputs": [
        {
          "internalType": "uint256",
          "name": "depositAmount",
          "type": "uint256"
        }
      ],
      "name": "deposit",
      "outputs": [],
      "stateMutability": "nonpayable",
      "type": "function"
    },
    {
      "inputs": [],
      "name": "depositManagerContract",
      "outputs": [
        {
          "internalType": "address",
          "name": "",
          "type": "address"
        }
      ],
      "stateMutability": "view",
      "type": "function"
    },
    {
      "inputs": [
        {
          "internalType": "uint256",
          "name": "",
          "type": "uint256"
        },
        {
          "internalType": "address",
          "name": "",
          "type": "address"
        }
      ],
      "name": "deposits",
      "outputs": [
        {
          "internalType": "uint256",
          "name": "",
          "type": "uint256"
        }
      ],
      "stateMutability": "view",
      "type": "function"
    },
    {
      "inputs": [],
      "name": "erc20Address",
      "outputs": [
        {
          "internalType": "address",
          "name": "",
          "type": "address"
        }
      ],
      "stateMutability": "view",
      "type": "function"
    },
    {
      "inputs": [],
      "name": "expirationDate",
      "outputs": [
        {
          "internalType": "uint256",
          "name": "",
          "type": "uint256"
        }
      ],
      "stateMutability": "view",
      "type": "function"
    },
    {
      "inputs": [],
      "name": "expirationTime",
      "outputs": [
        {
          "internalType": "uint256",
          "name": "",
          "type": "uint256"
        }
      ],
      "stateMutability": "view",
      "type": "function"
    },
    {
      "inputs": [
        {
          "internalType": "uint256",
          "name": "_amount",
          "type": "uint256"
        }
      ],
      "name": "makeTransfer",
      "outputs": [],
      "stateMutability": "nonpayable",
      "type": "function"
    },
    {
      "inputs": [],
      "name": "minimumReserve",
      "outputs": [
        {
          "internalType": "uint256",
          "name": "",
          "type": "uint256"
        }
      ],
      "stateMutability": "view",
      "type": "function"
    },
    {
      "inputs": [],
      "name": "refund",
      "outputs": [],
      "stateMutability": "nonpayable",
      "type": "function"
    },
    {
      "inputs": [],
      "name": "thresholdAmount",
      "outputs": [
        {
          "internalType": "uint256",
          "name": "",
          "type": "uint256"
        }
      ],
      "stateMutability": "view",
      "type": "function"
    },
    {
      "inputs": [],
      "name": "tokenName",
      "outputs": [
        {
          "internalType": "string",
          "name": "",
          "type": "string"
        }
      ],
      "stateMutability": "view",
      "type": "function"
    }
  ],
  "bytecode": "0x60806040523480156200001157600080fd5b5060405162000efb38038062000efb8339810160408190526200003491620001d7565b600780546001600160a01b038089166001600160a01b031992831617909255600680549288169290911691909117905560008055600282905583516200008290600890602087019062000114565b506003839055600481905562000097620000a3565b5050505050506200042d565b600054620000b3906001620003b5565b60008190556001819055600454620000cc9042620003b5565b600581905560035460405183907f6ec6fd0fe8702af4caa522af0509f1aa821d3c95b64cabc7e3227b83004304f7906200010990600890620002ea565b60405180910390a450565b8280546200012290620003da565b90600052602060002090601f01602090048101928262000146576000855562000191565b82601f106200016157805160ff191683800117855562000191565b8280016001018555821562000191579182015b828111156200019157825182559160200191906001019062000174565b506200019f929150620001a3565b5090565b5b808211156200019f5760008155600101620001a4565b80516001600160a01b0381168114620001d257600080fd5b919050565b60008060008060008060c08789031215620001f0578182fd5b620001fb87620001ba565b955060206200020c818901620001ba565b60408901519096506001600160401b038082111562000229578485fd5b818a0191508a601f8301126200023d578485fd5b81518181111562000252576200025262000417565b604051601f8201601f191681018501838111828210171562000278576200027862000417565b60405281815283820185018d10156200028f578687fd5b8692505b81831015620002b2578383018501518184018601529184019162000293565b81831115620002c357868583830101525b8098505050505050606087015192506080870151915060a087015190509295509295509295565b60006020808352818454836002820490506001808316806200030d57607f831692505b8583108114156200032c57634e487b7160e01b87526022600452602487fd5b6200033a83878a01620003ac565b818015620003515760018114620003635762000391565b60ff1986168252878201965062000391565b6200036e8b620003a0565b895b868110156200038b5781548482015290850190890162000370565b83019750505b50949998505050505050505050565b60009081526020902090565b90815260200190565b60008219821115620003d557634e487b7160e01b81526011600452602481fd5b500190565b600281046001821680620003ef57607f821691505b602082108114156200041157634e487b7160e01b600052602260045260246000fd5b50919050565b634e487b7160e01b600052604160045260246000fd5b610abe806200043d6000396000f3fe608060405234801561001057600080fd5b50600436106100ea5760003560e01c8063590e1ae31161008c578063b245b34b11610066578063b245b34b14610187578063b6b55f251461018f578063b6c5039f146101a2578063da284dcc146101aa576100ea565b8063590e1ae3146101625780636c02a9311461016a5780638f6204871461017f576100ea565b8063451250fb116100c8578063451250fb1461012a5780634aa82ff51461013257806353a58de11461013c57806353fafd151461014f576100ea565b8063276184ae146100ef57806328522ef81461010d57806328f4dbb614610115575b600080fd5b6100f76101b2565b60405161010491906107be565b60405180910390f35b6100f76101c1565b61011d6101d0565b6040516101049190610a14565b61011d6101d6565b61013a6101dc565b005b61011d61014a366004610784565b610247565b61013a61015d366004610754565b610264565b61013a610454565b610172610456565b6040516101049190610829565b61011d6104e4565b61011d6104ea565b61013a61019d366004610754565b6104f0565b61011d610721565b61011d610727565b6006546001600160a01b031681565b6007546001600160a01b031681565b60035481565b60005481565b6000546101ea906001610a29565b600081905560018190556004546102019042610a29565b600581905560035460405183907f6ec6fd0fe8702af4caa522af0509f1aa821d3c95b64cabc7e3227b83004304f79061023c9060089061087c565b60405180910390a450565b600960209081526000928352604080842090915290825290205481565b6006546040516370a0823160e01b81526001600160a01b0390911690829082906370a08231906102989030906004016107be565b60206040518083038186803b1580156102b057600080fd5b505afa1580156102c4573d6000803e3d6000fd5b505050506040513d601f19601f820116820180604052508101906102e8919061076c565b101561030f5760405162461bcd60e51b815260040161030690610956565b60405180910390fd5b60075460405163095ea7b360e01b81526001600160a01b038381169263095ea7b39261034392909116908690600401610810565b602060405180830381600087803b15801561035d57600080fd5b505af1158015610371573d6000803e3d6000fd5b505050506040513d601f19601f82011682018060405250810190610395919061072d565b6103b15760405162461bcd60e51b815260040161030690610984565b600754600654604051634bff5c9360e11b81526001600160a01b03928316926397feb926926103e7929116908690600401610810565b600060405180830381600087803b15801561040157600080fd5b505af1158015610415573d6000803e3d6000fd5b505050506104216101dc565b6001546040518391907f6a4d7d7f7e8263815c844523923a9bb145bb169061f318049f790034ee036eb090600090a35050565b565b6008805461046390610a4d565b80601f016020809104026020016040519081016040528092919081815260200182805461048f90610a4d565b80156104dc5780601f106104b1576101008083540402835291602001916104dc565b820191906000526020600020905b8154815290600101906020018083116104bf57829003601f168201915b505050505081565b60055481565b60015481565b6006546040516370a0823160e01b81526001600160a01b0390911690829082906370a08231906105249033906004016107be565b60206040518083038186803b15801561053c57600080fd5b505afa158015610550573d6000803e3d6000fd5b505050506040513d601f19601f82011682018060405250810190610574919061076c565b10156105925760405162461bcd60e51b815260040161030690610956565b604051636eb1769f60e11b815282906001600160a01b0383169063dd62ed3e906105c290339030906004016107d2565b60206040518083038186803b1580156105da57600080fd5b505afa1580156105ee573d6000803e3d6000fd5b505050506040513d601f19601f82011682018060405250810190610612919061076c565b10156106305760405162461bcd60e51b815260040161030690610926565b6040516323b872dd60e01b81526001600160a01b038216906323b872dd90610660903390309087906004016107ec565b602060405180830381600087803b15801561067a57600080fd5b505af115801561068e573d6000803e3d6000fd5b505050506040513d601f19601f820116820180604052508101906106b2919061072d565b6106ce5760405162461bcd60e51b8152600401610306906109cc565b600180546000908152600960209081526040808320338085529252808320869055925492519092859290917fd68606c673aecac7ce24ec44fd7d77b401356dfd76fe9b36cb58e579c4220aed9190a45050565b60025481565b60045481565b60006020828403121561073e578081fd5b8151801515811461074d578182fd5b9392505050565b600060208284031215610765578081fd5b5035919050565b60006020828403121561077d578081fd5b5051919050565b60008060408385031215610796578081fd5b8235915060208301356001600160a01b03811681146107b3578182fd5b809150509250929050565b6001600160a01b0391909116815260200190565b6001600160a01b0392831681529116602082015260400190565b6001600160a01b039384168152919092166020820152604081019190915260600190565b6001600160a01b03929092168252602082015260400190565b6000602080835283518082850152825b8181101561085557858101830151858201604001528201610839565b818111156108665783604083870101525b50601f01601f1916929092016040019392505050565b600060208083528184548360028204905060018083168061089e57607f831692505b8583108114156108bc57634e487b7160e01b87526022600452602487fd5b6108c883878a01610a14565b8180156108dc57600181146108ed57610917565b60ff19861682528782019650610917565b6108f68b610a1d565b895b86811015610911578154848201529085019089016108f8565b83019750505b50949998505050505050505050565b602080825260169082015275496e73756666696369656e7420616c6c6f77616e636560501b604082015260600190565b602080825260149082015273496e73756666696369656e742062616c616e636560601b604082015260600190565b60208082526028908201527f436f756c64206e6f7420617070726f7665206465706f7369744d616e6167657260408201526710dbdb9d1c9858dd60c21b606082015260800190565b60208082526028908201527f436f756c64206e6f74207472616e7366657220746f6b656e732066726f6d206460408201526732b837b9b4ba37b960c11b606082015260800190565b90815260200190565b60009081526020902090565b60008219821115610a4857634e487b7160e01b81526011600452602481fd5b500190565b600281046001821680610a6157607f821691505b60208210811415610a8257634e487b7160e01b600052602260045260246000fd5b5091905056fea2646970667358221220b95e5c9432483ae51df582373b3812f3a76bc527a89a2e036755fb5be63021ac64736f6c63430008000033",
  "linkReferences": {},
  "deployedLinkReferences": {}
}