{
  "_format": "hh-sol-artifact-1",
  "contractName": "BucketERC20",
  "sourceName": "contracts/BucketERC20.sol",
  "abi": [
    {
      "inputs": [
        {
          "internalType": "address",
          "name": "_erc20Address",
          "type": "address"
        },
        {
          "internalType": "string",
          "name": "_tokenName",
          "type": "string"
        },
        {
          "internalType": "uint256",
          "name": "_triggerAmount",
          "type": "uint256"
        },
        {
          "internalType": "uint256",
          "name": "_minimumReserve",
          "type": "uint256"
        },
        {
          "internalType": "uint256",
          "name": "_expirationTime",
          "type": "uint256"
        }
      ],
      "stateMutability": "nonpayable",
      "type": "constructor"
    },
    {
      "anonymous": false,
      "inputs": [
        {
          "indexed": true,
          "internalType": "uint256",
          "name": "id",
          "type": "uint256"
        },
        {
          "indexed": false,
          "internalType": "string",
          "name": "token",
          "type": "string"
        },
        {
          "indexed": true,
          "internalType": "uint256",
          "name": "triggerAmount",
          "type": "uint256"
        },
        {
          "indexed": true,
          "internalType": "uint256",
          "name": "expirationDate",
          "type": "uint256"
        }
      ],
      "name": "BucketCreated",
      "type": "event"
    },
    {
      "anonymous": false,
      "inputs": [
        {
          "indexed": true,
          "internalType": "uint256",
          "name": "bucketId",
          "type": "uint256"
        },
        {
          "indexed": true,
          "internalType": "uint256",
          "name": "amount",
          "type": "uint256"
        },
        {
          "indexed": true,
          "internalType": "address",
          "name": "depositor",
          "type": "address"
        }
      ],
      "name": "Deposit",
      "type": "event"
    },
    {
      "anonymous": false,
      "inputs": [
        {
          "indexed": true,
          "internalType": "uint256",
          "name": "bucketId",
          "type": "uint256"
        }
      ],
      "name": "InsufficientReserve",
      "type": "event"
    },
    {
      "anonymous": false,
      "inputs": [
        {
          "indexed": true,
          "internalType": "uint256",
          "name": "bucketId",
          "type": "uint256"
        },
        {
          "indexed": true,
          "internalType": "uint256",
          "name": "totalAmount",
          "type": "uint256"
        }
      ],
      "name": "TransferToPoly",
      "type": "event"
    },
    {
      "anonymous": false,
      "inputs": [
        {
          "indexed": true,
          "internalType": "uint256",
          "name": "bucketId",
          "type": "uint256"
        }
      ],
      "name": "Withdraw",
      "type": "event"
    },
    {
      "inputs": [],
      "name": "activeBucketId",
      "outputs": [
        {
          "internalType": "uint256",
          "name": "",
          "type": "uint256"
        }
      ],
      "stateMutability": "view",
      "type": "function"
    },
    {
      "inputs": [],
      "name": "bucketIdCount",
      "outputs": [
        {
          "internalType": "uint256",
          "name": "",
          "type": "uint256"
        }
      ],
      "stateMutability": "view",
      "type": "function"
    },
    {
      "inputs": [
        {
          "internalType": "uint256",
          "name": "triggerAmount",
          "type": "uint256"
        }
      ],
      "name": "createBucket",
      "outputs": [],
      "stateMutability": "nonpayable",
      "type": "function"
    },
    {
      "inputs": [
        {
          "internalType": "uint256",
          "name": "depositAmount",
          "type": "uint256"
        }
      ],
      "name": "deposit",
      "outputs": [],
      "stateMutability": "nonpayable",
      "type": "function"
    },
    {
      "inputs": [
        {
          "internalType": "uint256",
          "name": "",
          "type": "uint256"
        },
        {
          "internalType": "address",
          "name": "",
          "type": "address"
        }
      ],
      "name": "deposits",
      "outputs": [
        {
          "internalType": "uint256",
          "name": "",
          "type": "uint256"
        }
      ],
      "stateMutability": "view",
      "type": "function"
    },
    {
      "inputs": [],
      "name": "erc20Address",
      "outputs": [
        {
          "internalType": "address",
          "name": "",
          "type": "address"
        }
      ],
      "stateMutability": "view",
      "type": "function"
    },
    {
      "inputs": [],
      "name": "expirationDate",
      "outputs": [
        {
          "internalType": "uint256",
          "name": "",
          "type": "uint256"
        }
      ],
      "stateMutability": "view",
      "type": "function"
    },
    {
      "inputs": [],
      "name": "expirationTime",
      "outputs": [
        {
          "internalType": "uint256",
          "name": "",
          "type": "uint256"
        }
      ],
      "stateMutability": "view",
      "type": "function"
    },
    {
      "inputs": [],
      "name": "makeTransfer",
      "outputs": [],
      "stateMutability": "nonpayable",
      "type": "function"
    },
    {
      "inputs": [],
      "name": "minimumReserve",
      "outputs": [
        {
          "internalType": "uint256",
          "name": "",
          "type": "uint256"
        }
      ],
      "stateMutability": "view",
      "type": "function"
    },
    {
      "inputs": [],
      "name": "refund",
      "outputs": [],
      "stateMutability": "nonpayable",
      "type": "function"
    },
    {
      "inputs": [],
      "name": "tokenName",
      "outputs": [
        {
          "internalType": "string",
          "name": "",
          "type": "string"
        }
      ],
      "stateMutability": "view",
      "type": "function"
    }
  ],
  "bytecode": "0x60806040523480156200001157600080fd5b506040516200136e3803806200136e833981810160405281019062000037919062000291565b6000808190555084600560006101000a81548173ffffffffffffffffffffffffffffffffffffffff021916908373ffffffffffffffffffffffffffffffffffffffff1602179055508160028190555083600690805190602001906200009e92919062000141565b5080600381905550620000b783620000c260201b60201c565b505050505062000670565b6001600054620000d3919062000461565b60008190555060008054905060005460018190555060035442620000f8919062000461565b60048190555060045482827f6ec6fd0fe8702af4caa522af0509f1aa821d3c95b64cabc7e3227b83004304f76006604051620001359190620003b8565b60405180910390a45050565b8280546200014f9062000532565b90600052602060002090601f016020900481019282620001735760008555620001bf565b82601f106200018e57805160ff1916838001178555620001bf565b82800160010185558215620001bf579182015b82811115620001be578251825591602001919060010190620001a1565b5b509050620001ce9190620001d2565b5090565b5b80821115620001ed576000816000905550600101620001d3565b5090565b600062000208620002028462000405565b620003dc565b9050828152602081018484840111156200022157600080fd5b6200022e848285620004fc565b509392505050565b60008151905062000247816200063c565b92915050565b600082601f8301126200025f57600080fd5b815162000271848260208601620001f1565b91505092915050565b6000815190506200028b8162000656565b92915050565b600080600080600060a08688031215620002aa57600080fd5b6000620002ba8882890162000236565b955050602086015167ffffffffffffffff811115620002d857600080fd5b620002e6888289016200024d565b9450506040620002f9888289016200027a565b93505060606200030c888289016200027a565b92505060806200031f888289016200027a565b9150509295509295909350565b600081546200033b8162000532565b62000347818662000450565b945060018216600081146200036557600181146200037857620003af565b60ff1983168652602086019350620003af565b62000383856200043b565b60005b83811015620003a75781548189015260018201915060208101905062000386565b808801955050505b50505092915050565b60006020820190508181036000830152620003d481846200032c565b905092915050565b6000620003e8620003fb565b9050620003f6828262000568565b919050565b6000604051905090565b600067ffffffffffffffff821115620004235762000422620005fc565b5b6200042e826200062b565b9050602081019050919050565b60008190508160005260206000209050919050565b600082825260208201905092915050565b60006200046e82620004f2565b91506200047b83620004f2565b9250827fffffffffffffffffffffffffffffffffffffffffffffffffffffffffffffffff03821115620004b357620004b26200059e565b5b828201905092915050565b6000620004cb82620004d2565b9050919050565b600073ffffffffffffffffffffffffffffffffffffffff82169050919050565b6000819050919050565b60005b838110156200051c578082015181840152602081019050620004ff565b838111156200052c576000848401525b50505050565b600060028204905060018216806200054b57607f821691505b60208210811415620005625762000561620005cd565b5b50919050565b62000573826200062b565b810181811067ffffffffffffffff82111715620005955762000594620005fc565b5b80604052505050565b7f4e487b7100000000000000000000000000000000000000000000000000000000600052601160045260246000fd5b7f4e487b7100000000000000000000000000000000000000000000000000000000600052602260045260246000fd5b7f4e487b7100000000000000000000000000000000000000000000000000000000600052604160045260246000fd5b6000601f19601f8301169050919050565b6200064781620004be565b81146200065357600080fd5b50565b6200066181620004f2565b81146200066d57600080fd5b50565b610cee80620006806000396000f3fe608060405234801561001057600080fd5b50600436106100b45760003560e01c80638f620487116100715780638f62048714610157578063b245b34b14610175578063b6b55f2514610193578063b6c5039f146101af578063da284dcc146101cd578063fafe4378146101eb576100b4565b8063276184ae146100b9578063307a45aa146100d7578063451250fb146100e157806353a58de1146100ff578063590e1ae31461012f5780636c02a93114610139575b600080fd5b6100c1610207565b6040516100ce91906108f5565b60405180910390f35b6100df61022d565b005b6100e961022f565b6040516100f69190610a14565b60405180910390f35b61011960048036038101906101149190610779565b610235565b6040516101269190610a14565b60405180910390f35b61013761025a565b005b61014161025c565b60405161014e9190610970565b60405180910390f35b61015f6102ea565b60405161016c9190610a14565b60405180910390f35b61017d6102f0565b60405161018a9190610a14565b60405180910390f35b6101ad60048036038101906101a89190610727565b6102f6565b005b6101b7610625565b6040516101c49190610a14565b60405180910390f35b6101d561062b565b6040516101e29190610a14565b60405180910390f35b61020560048036038101906102009190610727565b610631565b005b600560009054906101000a900473ffffffffffffffffffffffffffffffffffffffff1681565b565b60005481565b6007602052816000526040600020602052806000526040600020600091509150505481565b565b6006805461026990610b31565b80601f016020809104026020016040519081016040528092919081815260200182805461029590610b31565b80156102e25780601f106102b7576101008083540402835291602001916102e2565b820191906000526020600020905b8154815290600101906020018083116102c557829003601f168201915b505050505081565b60045481565b60015481565b6000600560009054906101000a900473ffffffffffffffffffffffffffffffffffffffff169050818173ffffffffffffffffffffffffffffffffffffffff166370a08231336040518263ffffffff1660e01b815260040161035791906108f5565b60206040518083038186803b15801561036f57600080fd5b505afa158015610383573d6000803e3d6000fd5b505050506040513d601f19601f820116820180604052508101906103a79190610750565b10156103e8576040517f08c379a00000000000000000000000000000000000000000000000000000000081526004016103df906109d4565b60405180910390fd5b818173ffffffffffffffffffffffffffffffffffffffff1663dd62ed3e33306040518363ffffffff1660e01b8152600401610424929190610910565b60206040518083038186803b15801561043c57600080fd5b505afa158015610450573d6000803e3d6000fd5b505050506040513d601f19601f820116820180604052508101906104749190610750565b10156104b5576040517f08c379a00000000000000000000000000000000000000000000000000000000081526004016104ac906109b4565b60405180910390fd5b8073ffffffffffffffffffffffffffffffffffffffff166323b872dd3330856040518463ffffffff1660e01b81526004016104f293929190610939565b602060405180830381600087803b15801561050c57600080fd5b505af1158015610520573d6000803e3d6000fd5b505050506040513d601f19601f8201168201806040525081019061054491906106fe565b610583576040517f08c379a000000000000000000000000000000000000000000000000000000000815260040161057a906109f4565b60405180910390fd5b8160076000600154815260200190815260200160002060003373ffffffffffffffffffffffffffffffffffffffff1673ffffffffffffffffffffffffffffffffffffffff168152602001908152602001600020819055503373ffffffffffffffffffffffffffffffffffffffff16826001547fd68606c673aecac7ce24ec44fd7d77b401356dfd76fe9b36cb58e579c4220aed60405160405180910390a45050565b60025481565b60035481565b60016000546106409190610a60565b600081905550600080549050600054600181905550600354426106639190610a60565b60048190555060045482827f6ec6fd0fe8702af4caa522af0509f1aa821d3c95b64cabc7e3227b83004304f7600660405161069e9190610992565b60405180910390a45050565b6000813590506106b981610c73565b92915050565b6000815190506106ce81610c8a565b92915050565b6000813590506106e381610ca1565b92915050565b6000815190506106f881610ca1565b92915050565b60006020828403121561071057600080fd5b600061071e848285016106bf565b91505092915050565b60006020828403121561073957600080fd5b6000610747848285016106d4565b91505092915050565b60006020828403121561076257600080fd5b6000610770848285016106e9565b91505092915050565b6000806040838503121561078c57600080fd5b600061079a858286016106d4565b92505060206107ab858286016106aa565b9150509250929050565b6107be81610ab6565b82525050565b60006107cf82610a44565b6107d98185610a4f565b93506107e9818560208601610afe565b6107f281610bc1565b840191505092915050565b6000815461080a81610b31565b6108148186610a4f565b9450600182166000811461082f576001811461084157610874565b60ff1983168652602086019350610874565b61084a85610a2f565b60005b8381101561086c5781548189015260018201915060208101905061084d565b808801955050505b50505092915050565b600061088a601683610a4f565b915061089582610bd2565b602082019050919050565b60006108ad601483610a4f565b91506108b882610bfb565b602082019050919050565b60006108d0602883610a4f565b91506108db82610c24565b604082019050919050565b6108ef81610af4565b82525050565b600060208201905061090a60008301846107b5565b92915050565b600060408201905061092560008301856107b5565b61093260208301846107b5565b9392505050565b600060608201905061094e60008301866107b5565b61095b60208301856107b5565b61096860408301846108e6565b949350505050565b6000602082019050818103600083015261098a81846107c4565b905092915050565b600060208201905081810360008301526109ac81846107fd565b905092915050565b600060208201905081810360008301526109cd8161087d565b9050919050565b600060208201905081810360008301526109ed816108a0565b9050919050565b60006020820190508181036000830152610a0d816108c3565b9050919050565b6000602082019050610a2960008301846108e6565b92915050565b60008190508160005260206000209050919050565b600081519050919050565b600082825260208201905092915050565b6000610a6b82610af4565b9150610a7683610af4565b9250827fffffffffffffffffffffffffffffffffffffffffffffffffffffffffffffffff03821115610aab57610aaa610b63565b5b828201905092915050565b6000610ac182610ad4565b9050919050565b60008115159050919050565b600073ffffffffffffffffffffffffffffffffffffffff82169050919050565b6000819050919050565b60005b83811015610b1c578082015181840152602081019050610b01565b83811115610b2b576000848401525b50505050565b60006002820490506001821680610b4957607f821691505b60208210811415610b5d57610b5c610b92565b5b50919050565b7f4e487b7100000000000000000000000000000000000000000000000000000000600052601160045260246000fd5b7f4e487b7100000000000000000000000000000000000000000000000000000000600052602260045260246000fd5b6000601f19601f8301169050919050565b7f496e73756666696369656e7420616c6c6f77616e636500000000000000000000600082015250565b7f496e73756666696369656e742062616c616e6365000000000000000000000000600082015250565b7f436f756c64206e6f74207472616e7366657220746f6b656e732066726f6d206460008201527f65706f7369746f72000000000000000000000000000000000000000000000000602082015250565b610c7c81610ab6565b8114610c8757600080fd5b50565b610c9381610ac8565b8114610c9e57600080fd5b50565b610caa81610af4565b8114610cb557600080fd5b5056fea2646970667358221220b57126cd5b6e6ebd8ef5e6216530d8b31de8c79119422da4d64c0c477ddacfa264736f6c63430008040033",
  "linkReferences": {},
  "deployedLinkReferences": {}
}