{
    "_format": "hh-sol-artifact-1",
    "contractName": "BucketERC20",
    "sourceName": "contracts/BucketERC20.sol",
    "abi": [
        {
            "inputs": [
                {
                    "internalType": "address",
                    "name": "_depositManagerContract",
                    "type": "address"
                },
                {
                    "internalType": "address",
                    "name": "_bucketL2Address",
                    "type": "address"
                }
            ],
            "stateMutability": "nonpayable",
            "type": "constructor"
        },
        {
            "anonymous": false,
            "inputs": [
                {
                    "indexed": false,
                    "internalType": "address",
                    "name": "tokenAddress",
                    "type": "address"
                },
                {
                    "indexed": true,
                    "internalType": "uint256",
                    "name": "bucketId",
                    "type": "uint256"
                },
                {
                    "indexed": true,
                    "internalType": "uint256",
                    "name": "triggerAmount",
                    "type": "uint256"
                },
                {
                    "indexed": true,
                    "internalType": "uint256",
                    "name": "expirationDate",
                    "type": "uint256"
                }
            ],
            "name": "BucketCreated",
            "type": "event"
        },
        {
            "anonymous": false,
            "inputs": [
                {
                    "indexed": false,
                    "internalType": "address",
                    "name": "tokenAddress",
                    "type": "address"
                },
                {
                    "indexed": true,
                    "internalType": "uint256",
                    "name": "bucketId",
                    "type": "uint256"
                },
                {
                    "indexed": true,
                    "internalType": "uint256",
                    "name": "amount",
                    "type": "uint256"
                },
                {
                    "indexed": true,
                    "internalType": "address",
                    "name": "depositor",
                    "type": "address"
                }
            ],
            "name": "Deposit",
            "type": "event"
        },
        {
            "anonymous": false,
            "inputs": [
                {
                    "indexed": true,
                    "internalType": "uint256",
                    "name": "bucketId",
                    "type": "uint256"
                }
            ],
            "name": "InsufficientReserve",
            "type": "event"
        },
        {
            "anonymous": false,
            "inputs": [
                {
                    "indexed": true,
                    "internalType": "address",
                    "name": "tokenAddress",
                    "type": "address"
                },
                {
                    "indexed": true,
                    "internalType": "uint256",
                    "name": "bucketId",
                    "type": "uint256"
                },
                {
                    "indexed": true,
                    "internalType": "uint256",
                    "name": "totalAmount",
                    "type": "uint256"
                }
            ],
            "name": "TransferToPoly",
            "type": "event"
        },
        {
            "anonymous": false,
            "inputs": [
                {
                    "indexed": true,
                    "internalType": "uint256",
                    "name": "bucketId",
                    "type": "uint256"
                },
                {
                    "indexed": true,
                    "internalType": "uint256",
                    "name": "amount",
                    "type": "uint256"
                },
                {
                    "indexed": true,
                    "internalType": "address",
                    "name": "withdrawer",
                    "type": "address"
                }
            ],
            "name": "Withdraw",
            "type": "event"
        },
        {
            "inputs": [],
            "name": "ADMIN_ROLE",
            "outputs": [
                {
                    "internalType": "bytes32",
                    "name": "",
                    "type": "bytes32"
                }
            ],
            "stateMutability": "view",
            "type": "function"
        },
        {
            "inputs": [],
            "name": "RELAY_ROLE",
            "outputs": [
                {
                    "internalType": "bytes32",
                    "name": "",
                    "type": "bytes32"
                }
            ],
            "stateMutability": "view",
            "type": "function"
        },
        {
            "inputs": [
                {
                    "internalType": "bytes32",
                    "name": "role",
                    "type": "bytes32"
                },
                {
                    "internalType": "address",
                    "name": "actor",
                    "type": "address"
                }
            ],
            "name": "addRole",
            "outputs": [],
            "stateMutability": "nonpayable",
            "type": "function"
        },
        {
            "inputs": [
                {
                    "internalType": "address",
                    "name": "",
                    "type": "address"
                }
            ],
            "name": "bucketInfo",
            "outputs": [
                {
                    "internalType": "uint256",
                    "name": "idCounter",
                    "type": "uint256"
                },
                {
                    "internalType": "uint256",
                    "name": "expirationTime",
                    "type": "uint256"
                },
                {
                    "internalType": "uint256",
                    "name": "expirationDate",
                    "type": "uint256"
                },
                {
                    "internalType": "uint256",
                    "name": "thresholdAmount",
                    "type": "uint256"
                },
                {
                    "internalType": "uint256",
                    "name": "totalAmount",
                    "type": "uint256"
                },
                {
                    "internalType": "uint256",
                    "name": "fee",
                    "type": "uint256"
                }
            ],
            "stateMutability": "view",
            "type": "function"
        },
        {
            "inputs": [],
            "name": "bucketL2Address",
            "outputs": [
                {
                    "internalType": "address",
                    "name": "",
                    "type": "address"
                }
            ],
            "stateMutability": "view",
            "type": "function"
        },
        {
            "inputs": [
                {
                    "internalType": "address",
                    "name": "_tokenAddress",
                    "type": "address"
                },
                {
                    "internalType": "uint256",
                    "name": "_expirationTime",
                    "type": "uint256"
                },
                {
                    "internalType": "uint256",
                    "name": "_thresholdAmount",
                    "type": "uint256"
                },
                {
                    "internalType": "uint256",
                    "name": "_fee",
                    "type": "uint256"
                }
            ],
            "name": "createBucket",
            "outputs": [],
            "stateMutability": "nonpayable",
            "type": "function"
        },
        {
            "inputs": [
                {
                    "internalType": "address",
                    "name": "_tokenAddress",
                    "type": "address"
                },
                {
                    "internalType": "uint256",
                    "name": "depositAmount",
                    "type": "uint256"
                }
            ],
            "name": "deposit",
            "outputs": [],
            "stateMutability": "nonpayable",
            "type": "function"
        },
        {
            "inputs": [],
            "name": "depositManagerContract",
            "outputs": [
                {
                    "internalType": "address",
                    "name": "",
                    "type": "address"
                }
            ],
            "stateMutability": "view",
            "type": "function"
        },
        {
            "inputs": [
                {
                    "internalType": "address",
                    "name": "",
                    "type": "address"
                },
                {
                    "internalType": "uint256",
                    "name": "",
                    "type": "uint256"
                },
                {
                    "internalType": "address",
                    "name": "",
                    "type": "address"
                }
            ],
            "name": "deposits",
            "outputs": [
                {
                    "internalType": "uint256",
                    "name": "",
                    "type": "uint256"
                }
            ],
            "stateMutability": "view",
            "type": "function"
        },
        {
            "inputs": [
                {
                    "internalType": "bytes32",
                    "name": "role",
                    "type": "bytes32"
                },
                {
                    "internalType": "address",
                    "name": "actor",
                    "type": "address"
                }
            ],
            "name": "hasRole",
            "outputs": [
                {
                    "internalType": "bool",
                    "name": "",
                    "type": "bool"
                }
            ],
            "stateMutability": "view",
            "type": "function"
        },
        {
            "inputs": [
                {
                    "internalType": "address",
                    "name": "_tokenAddress",
                    "type": "address"
                },
                {
                    "internalType": "uint256",
                    "name": "_amount",
                    "type": "uint256"
                }
            ],
            "name": "makeTransfer",
            "outputs": [],
            "stateMutability": "nonpayable",
            "type": "function"
        },
        {
            "inputs": [
                {
                    "internalType": "address",
                    "name": "_tokenAddress",
                    "type": "address"
                }
            ],
            "name": "refund",
            "outputs": [],
            "stateMutability": "nonpayable",
            "type": "function"
        },
        {
            "inputs": [
                {
                    "internalType": "bytes32",
                    "name": "role",
                    "type": "bytes32"
                },
                {
                    "internalType": "address",
                    "name": "actor",
                    "type": "address"
                }
            ],
            "name": "revokeRole",
            "outputs": [],
            "stateMutability": "nonpayable",
            "type": "function"
        },
        {
            "inputs": [
                {
                    "internalType": "address",
                    "name": "_tokenAddress",
                    "type": "address"
                },
                {
                    "internalType": "uint256",
                    "name": "_expirationDate",
                    "type": "uint256"
                }
            ],
            "name": "setExpirationDate",
            "outputs": [],
            "stateMutability": "nonpayable",
            "type": "function"
        },
        {
            "inputs": [
                {
                    "internalType": "address",
                    "name": "_tokenAddress",
                    "type": "address"
                },
                {
                    "internalType": "uint256",
                    "name": "_expirationTime",
                    "type": "uint256"
                }
            ],
            "name": "setExpirationTime",
            "outputs": [],
            "stateMutability": "nonpayable",
            "type": "function"
        },
        {
            "inputs": [
                {
                    "internalType": "address",
                    "name": "_tokenAddress",
                    "type": "address"
                },
                {
                    "internalType": "uint256",
                    "name": "_fee",
                    "type": "uint256"
                }
            ],
            "name": "setFee",
            "outputs": [],
            "stateMutability": "nonpayable",
            "type": "function"
        },
        {
            "inputs": [
                {
                    "internalType": "address",
                    "name": "_tokenAddress",
                    "type": "address"
                },
                {
                    "internalType": "uint256",
                    "name": "_thresholdAmount",
                    "type": "uint256"
                }
            ],
            "name": "setThresholdAmount",
            "outputs": [],
            "stateMutability": "nonpayable",
            "type": "function"
        }
    ],
    "bytecode": "0x60806040523480156200001157600080fd5b50604051620015123803806200151283398101604081905262000034916200015f565b600080546001600160a01b038085166001600160a01b03199283161790925560018054928416929091169190911790556200006e62000076565b505062000196565b600062000082620000b3565b9050620000b07fa49807205ce4d355092ef5a8a18f56e8913cf4a201fbe287825b095693c2177582620000b7565b50565b3390565b620000e78282620000d2620000eb60201b62000e381760201c565b6200010f60201b62000e5c179092919060201c565b5050565b7f636f6d2e6275636b65746c792e416363657373436f6e74726f6c00000000000090565b60009182526001928301602090815260408084206001600160a01b0390931684529190529020805460ff19169091179055565b80516001600160a01b03811681146200015a57600080fd5b919050565b6000806040838503121562000172578182fd5b6200017d8362000142565b91506200018d6020840162000142565b90509250929050565b61136c80620001a66000396000f3fe608060405234801561001057600080fd5b506004361061010b5760003560e01c806391d14854116100a2578063e55156b511610071578063e55156b51461020c578063e959b38a1461021f578063f4a1381414610232578063fa89401a14610245578063fc695720146102585761010b565b806391d14854146101b3578063abea22cc146101d3578063b818b397146101e6578063d547741f146101f95761010b565b806347e7ef24116100de57806347e7ef241461016057806375b238fc1461017357806379f770701461017b5780637f41da3a146101a05761010b565b80630442182314610110578063191604b91461012e57806321d6ef631461014357806328522ef814610158575b600080fd5b61011861026b565b6040516101259190611081565b60405180910390f35b61014161013c366004610f0c565b61028f565b005b61014b6102ee565b604051610125919061100b565b61014b6102fd565b61014161016e366004610f0c565b61030c565b61011861058e565b61018e610189366004610ef2565b6105a0565b6040516101259695949392919061126a565b6101416101ae366004610f0c565b6105dc565b6101c66101c1366004610fc8565b610631565b6040516101259190611076565b6101416101e1366004610f0c565b6106cc565b6101416101f4366004610f0c565b61098a565b610141610207366004610fc8565b6109df565b61014161021a366004610f0c565b610a2d565b61014161022d366004610fc8565b610a82565b610118610240366004610f35565b610ac2565b610141610253366004610ef2565b610ae5565b610141610266366004610f70565b610cfd565b7f077a1d526a4ce8a773632ab13b4fbbf1fcc954c3dab26cd27ea0e2a6750da5d781565b6102a96000805160206113178339815191526101c1610e8f565b6102ce5760405162461bcd60e51b81526004016102c590611228565b60405180910390fd5b6001600160a01b0390911660009081526003602081905260409091200155565b6001546001600160a01b031681565b6000546001600160a01b031681565b6040516370a0823160e01b8152829082906001600160a01b038316906370a082319061033c90339060040161100b565b60206040518083038186803b15801561035457600080fd5b505afa158015610368573d6000803e3d6000fd5b505050506040513d601f19601f8201168201806040525081019061038c9190610ff3565b10156103aa5760405162461bcd60e51b81526004016102c5906110ba565b604051636eb1769f60e11b815282906001600160a01b0383169063dd62ed3e906103da903390309060040161101f565b60206040518083038186803b1580156103f257600080fd5b505afa158015610406573d6000803e3d6000fd5b505050506040513d601f19601f8201168201806040525081019061042a9190610ff3565b10156104485760405162461bcd60e51b81526004016102c59061108a565b6040516323b872dd60e01b81526001600160a01b038216906323b872dd9061047890339030908790600401611039565b602060405180830381600087803b15801561049257600080fd5b505af11580156104a6573d6000803e3d6000fd5b505050506040513d601f19601f820116820180604052508101906104ca9190610fa8565b6104e65760405162461bcd60e51b81526004016102c590611167565b6001600160a01b03831660009081526003602052604081206004018054849290610511908490611292565b90915550506001600160a01b0383166000908152600360209081526040808320546002835281842081855283528184203380865293529281902085905551849083907f02d7e648dd130fc184d383e55bb126ac4c9c60e8f94bf05acdf557ba2d540b479061058090899061100b565b60405180910390a450505050565b60008051602061131783398151915281565b60036020528060005260406000206000915090508060000154908060010154908060020154908060030154908060040154908060050154905086565b6105f66000805160206113178339815191526101c1610e8f565b6106125760405162461bcd60e51b81526004016102c590611228565b6001600160a01b03909116600090815260036020526040902060020155565b600061063b610e38565b6040516334c5e0e760e11b815273__$dafd1c72d965abbb2b80d9a8c80dd38550$__9163698bc1ce9161067591908790879060040161124b565b60206040518083038186803b15801561068d57600080fd5b505af41580156106a1573d6000803e3d6000fd5b505050506040513d601f19601f820116820180604052508101906106c59190610fa8565b9392505050565b6001600160a01b038216600090815260036020526040902060020154421015610732576001600160a01b03821660009081526003602081905260409091209081015460049091015410156107325760405162461bcd60e51b81526004016102c5906111af565b6001600160a01b03821660009081526003602052604081206005015490606461075b83856112ca565b61076591906112aa565b61076f90846112e9565b6040516370a0823160e01b8152909150849082906001600160a01b038316906370a08231906107a290309060040161100b565b60206040518083038186803b1580156107ba57600080fd5b505afa1580156107ce573d6000803e3d6000fd5b505050506040513d601f19601f820116820180604052508101906107f29190610ff3565b10156108105760405162461bcd60e51b81526004016102c5906110ba565b60005460405163095ea7b360e01b81526001600160a01b038381169263095ea7b3926108449290911690869060040161105d565b602060405180830381600087803b15801561085e57600080fd5b505af1158015610872573d6000803e3d6000fd5b505050506040513d601f19601f820116820180604052508101906108969190610fa8565b6108b25760405162461bcd60e51b81526004016102c59061111f565b600054600154604051638b9e4f9360e01b81526001600160a01b0392831692638b9e4f93926108eb928a92909116908790600401611039565b600060405180830381600087803b15801561090557600080fd5b505af1158015610919573d6000803e3d6000fd5b5050506001600160a01b0386166000908152600360205260408120805492506001916109458385611292565b9091555050604051839082906001600160a01b038916907ffc6c42955be240acf18595dbd7d1ee4bc62ee9b2ad69db5dc8b0f68b8983abbd90600090a4505050505050565b6109a46000805160206113178339815191526101c1610e8f565b6109c05760405162461bcd60e51b81526004016102c590611228565b6001600160a01b03909116600090815260036020526040902060010155565b6109f96000805160206113178339815191526101c1610e8f565b610a155760405162461bcd60e51b81526004016102c590611228565b610a298282610a22610e38565b9190610e93565b5050565b610a476000805160206113178339815191526101c1610e8f565b610a635760405162461bcd60e51b81526004016102c590611228565b6001600160a01b03909116600090815260036020526040902060050155565b610a9c6000805160206113178339815191526101c1610e8f565b610ab85760405162461bcd60e51b81526004016102c590611228565b610a298282610ec2565b600260209081526000938452604080852082529284528284209052825290205481565b6001600160a01b0381166000908152600360209081526040808320546002835281842081855283528184203385529092529091205480610b375760405162461bcd60e51b81526004016102c5906111e6565b6040516370a0823160e01b8152839082906001600160a01b038316906370a0823190610b6790309060040161100b565b60206040518083038186803b158015610b7f57600080fd5b505afa158015610b93573d6000803e3d6000fd5b505050506040513d601f19601f82011682018060405250810190610bb79190610ff3565b1015610bd55760405162461bcd60e51b81526004016102c5906110ba565b6001600160a01b03841660009081526003602052604081206004018054849290610c009084906112e9565b90915550506001600160a01b038085166000908152600260209081526040808320878452825280832033808552925280832092909255905163a9059cbb60e01b81529183169163a9059cbb91610c5a91869060040161105d565b602060405180830381600087803b158015610c7457600080fd5b505af1158015610c88573d6000803e3d6000fd5b505050506040513d601f19601f82011682018060405250810190610cac9190610fa8565b610cc85760405162461bcd60e51b81526004016102c5906110e8565b6040513390839085907f71ef96c43343734b1d843bb85d52ef329f5e9143e4d35827771e3b0dd90c5f8490600090a450505050565b610d176000805160206113178339815191526101c1610e8f565b610d335760405162461bcd60e51b81526004016102c590611228565b6001600160a01b0384166000908152600360205260408120805460019290610d5c908490611292565b90915550506001600160a01b03841660009081526003602052604081206001018054859290610d8c908490611292565b90915550610d9c90508342611292565b6001600160a01b038516600090815260036020819052604082206002810193909355919091018054849290610dd2908490611292565b90915550506001600160a01b0384166000908152600360205260408082206005810184905560048101929092556002820154915490518491907ff89253ee05db3b460c9eccc9b4dbb68f76165c64634176d8a79dd38ba5c86c8f9061058090899061100b565b7f636f6d2e6275636b65746c792e416363657373436f6e74726f6c00000000000090565b60009182526001928301602090815260408084206001600160a01b0390931684529190529020805460ff19169091179055565b3390565b60009182526001909201602090815260408083206001600160a01b03909416835292905220805460ff19169055565b610a298282610ecf610e38565b9190610e5c565b80356001600160a01b0381168114610eed57600080fd5b919050565b600060208284031215610f03578081fd5b6106c582610ed6565b60008060408385031215610f1e578081fd5b610f2783610ed6565b946020939093013593505050565b600080600060608486031215610f49578081fd5b610f5284610ed6565b925060208401359150610f6760408501610ed6565b90509250925092565b60008060008060808587031215610f85578081fd5b610f8e85610ed6565b966020860135965060408601359560600135945092505050565b600060208284031215610fb9578081fd5b815180151581146106c5578182fd5b60008060408385031215610fda578182fd5b82359150610fea60208401610ed6565b90509250929050565b600060208284031215611004578081fd5b5051919050565b6001600160a01b0391909116815260200190565b6001600160a01b0392831681529116602082015260400190565b6001600160a01b039384168152919092166020820152604081019190915260600190565b6001600160a01b03929092168252602082015260400190565b901515815260200190565b90815260200190565b602080825260169082015275496e73756666696369656e7420616c6c6f77616e636560501b604082015260600190565b602080825260149082015273496e73756666696369656e742062616c616e636560601b604082015260600190565b60208082526019908201527f436f756c64206e6f74207472616e7366657220746f6b656e7300000000000000604082015260600190565b60208082526028908201527f436f756c64206e6f7420617070726f7665206465706f7369744d616e6167657260408201526710dbdb9d1c9858dd60c21b606082015260800190565b60208082526028908201527f436f756c64206e6f74207472616e7366657220746f6b656e732066726f6d206460408201526732b837b9b4ba37b960c11b606082015260800190565b6020808252601c908201527f5468726573686f6c6420616d6f756e74206e6f74207265616368656400000000604082015260600190565b60208082526022908201527f4d73672e73656e646572206465706f7369742062616c616e6365206973207a65604082015261726f60f01b606082015260800190565b6020808252600990820152682737ba1030b236b4b760b91b604082015260600190565b92835260208301919091526001600160a01b0316604082015260600190565b958652602086019490945260408501929092526060840152608083015260a082015260c00190565b600082198211156112a5576112a5611300565b500190565b6000826112c557634e487b7160e01b81526012600452602481fd5b500490565b60008160001904831182151516156112e4576112e4611300565b500290565b6000828210156112fb576112fb611300565b500390565b634e487b7160e01b600052601160045260246000fdfea49807205ce4d355092ef5a8a18f56e8913cf4a201fbe287825b095693c21775a2646970667358221220aeb05774d18e4154a516d3878942b5716ac8c8db6e42605ea52f15d6729ad15964736f6c63430008000033",
    "linkReferences": {
        "contracts/LibAccess.sol": {
            "LibAccess": [
                {
                    "length": 20,
                    "start": 2032
                }
            ]
        }
    },
    "deployedLinkReferences": {
        "contracts/LibAccess.sol": {
            "LibAccess": [
                {
                    "length": 20,
                    "start": 1610
                }
            ]
        }
    }
}